:100000000C94D5000C94FD000C94FD000C94FD00A4
:100010000C94FD000C94FD000C94FD000C94FD006C
:100020000C94FD000C94FD000C943C080C94AB085F
:100030000C94FD000C94FD000C94FD000C94FD004C
:100040000C94FD000C94FD000C94FD000C94FD003C
:100050000C94FD000C94FD000C94FD000C94DD0A42
:100060000C94FD000C94FD000C94FD000C94FD001C
:100070000C94FD000C94FD000C94FD000C94FD000C
:100080000C94FD000C94FD000C94FD000C94FD00FC
:100090000C94270B0C94FD000C94FD000C94FD00B7
:1000A0000C94FD000C94FD000C94FD00080B000264
:1000B0000202000009040000010202000005240001
:1000C0001001052401010104240206052406000193
:1000D0000705810310004009040100020A00000026
:1000E00007050202400000070583024000000403E8
:1000F000090412010002EF02014041233680000191
:100100000102030141726475696E6F204C4C43001B
:1001100041726475696E6F204C656F6E6172646FB9
:1001200000000000002300260029002C002F000002
:1001300000000200090F0000030401000C00000091
:1001400000000000000000000000000000000000AF
:100150000000250028002B002E00310000000000C8
:10016000240027002A002D003000040404040403A6
:100170000405020202020403020202020606060647
:10018000060604040202020404040802011040806E
:10019000401020408040800802040180402010026E
:1001A0000110801020404020420C11241FBECFEFD0
:1001B000DAE0DEBFCDBF11E0A0E0B1E0ECE7F8E2AD
:1001C00002C005900D92A639B107D9F723E0A6E940
:1001D000B1E001C01D92A731B207E1F710E0C5ED13
:1001E000D0E004C02197FE010E941C10C43DD1073D
:1001F000C9F70E94BF0D0C943C140C940000CF92E0
:10020000DF92EF92FF920F931F93CF93DF93D90169
:10021000E8016A01F9014217530714F06901FA0174
:10022000882309F440C0CB016C157D050CF4C60190
:100230009F018E179F070CF49C01A417B50734F497
:10024000CF01821B930B9C012C0D3D1D0D2C000C2E
:10025000EE08FF08032E000C440B550B2C193D092A
:100260004E095F09AEEFBFEF0E94CC0F9F01FF0F59
:10027000440B550B2C193D094E095F090E94AD0F27
:10028000DA01C9018F5F9F47A109B109888399836A
:1002900082E090E0DF91CF911F910F91FF90EF905E
:1002A000DF90CF90089590E080E0F4CFCF93DF937C
:1002B00090E0FC01E757FE4F249186599E4FFC01C8
:1002C00084918823C1F090E0880F991FFC01E45AC3
:1002D000FE4FC591D491FC01E25BFE4FA591B49114
:1002E0009FB7F8948881E22FE0958E2388838C91C4
:1002F000E823EC939FBFDF91CF910895FC0180919B
:100300007202882311F13FB7F89482E08093E900EC
:100310002091F200822F90E01816190614F481E063
:1003200090E0882339F0289844E640937102409188
:10033000F1004083222339F02091F200211103C003
:100340002BE62093E8003FBF08958FEF9FEF0895BD
:100350004091370250913802209135023091360297
:1003600042175307B4F49091E8009570E1F390912F
:10037000E80092FD19C08093F100809137029091BE
:10038000380201968F739927892B19F48EEF809389
:10039000E8008091370290913802019690933802DC
:1003A0008093370281E0089580E00895EF92FF92F4
:1003B0000F931F93CF93DF93F82E192FE62E042F60
:1003C00081E0860F880F0E94A80183E00E94A801A7
:1003D000CF2DD12FEC0EFD2EF11CCE15DF05B9F07F
:1003E00007FF13C0FE0184910E94A801182F80E02E
:1003F0000E94A801812321968111EFCFDF91CF9137
:100400001F910F91FF90EF9008958881EDCF81E0CB
:10041000F5CFDF92EF92FF920F931F93CF93DF936D
:10042000D82E8A01EB017B01E40EF51ECE15DF0507
:1004300059F0D7FE12C0FE0184910E94A8012196B6
:100440008111F4CF0FEF1FEFC801DF91CF911F9102
:100450000F91FF90EF90DF9008958881EECF2FB736
:10046000F89487708093E9009091E800892F80725A
:1004700095FF04C09091F20080E4891B2FBF08957E
:10048000615030F02091F100FC0120830196F8CFFB
:10049000289884E680937102089580912D0281113D
:1004A0000DC082E08093290284E080932A0210929A
:1004B0002C0210922B0281E080932D0289E292E0BF
:1004C00008950F931F93CF93DF931F92CDB7DEB79D
:1004D00082E0898342E450E06CEA70E080E80E94A8
:1004E00009020E944D02DC0112960D911C9101152A
:1004F000110589F0D801ED91FC910280F381E02D86
:10050000BE016F5F7F4FC801099597FD04C0F801D8
:1005100000851185ECCF89810F90DF91CF911F91DC
:100520000F910895CF93DF931F92CDB7DEB7698304
:10053000DC01ED91FC910280F381E02D41E050E07F
:10054000BE016F5F7F4F09950F90DF91CF910895A6
:1005500083E08093E9008091F200882319F08AE318
:100560008093E800089583E00E942F0290E00895B0
:10057000CF93DF931F92CDB7DEB7FC0184859585BD
:1005800097FD08C02FEF3FEF358724870F90DF914D
:10059000CF910895CE0101960E947E01019719F432
:1005A000898190E0F3CF8FEF9FEFF0CF0F931F93F0
:1005B000CF93DF931F92CDB7DEB78C01FC0184850A
:1005C000958597FF0BC0CE0101960E947E01019791
:1005D00071F4898190E0F80195878487F80184851A
:1005E00095850F90DF91CF911F910F9108958FEF17
:1005F0009FEFF1CFFC018485958597FD0BC09FB7D8
:10060000F89482E08093E9008091F2009FBF90E02F
:10061000019608959FB7F89482E08093E900809155
:10062000F2009FBF90E0089581508F3008F047C0DE
:10063000E82FF0E0E25EFC4F0C941C103B033F03FC
:100640002D03330337035F035F035F034203480354
:100650004C03500356035F035A03809180008F7749
:10066000809380000895809180008F7DF9CF8091E4
:100670008000877FF5CF84B58F7784BD089584B5DA
:100680008F7DFBCF809190008F77809390000895AD
:10069000809190008F7DF9CF80919000877FF5CF7A
:1006A0008091C0008F778093C00008958091C00032
:1006B0008F7DF9CF8091C200877F8093C20008951B
:1006C0001F93CF93DF93282F30E0F901E15DFE4FB8
:1006D0008491F901E757FE4FD491F901E659FE4F95
:1006E000C491CC23A9F0162F81110E941403EC2F82
:1006F000F0E0EE0FFF1FE25BFE4FA591B4918FB7C4
:10070000F894EC91111108C0D095DE23DC938FBFD3
:10071000DF91CF911F910895DE2BF8CF3FB7F8946A
:100720008091250290912602A0912702B091280283
:1007300026B5A89B05C02F3F19F00196A11DB11D3C
:100740003FBFBA2FA92F982F8827BC01CD01620F78
:10075000711D811D911D42E0660F771F881F991F33
:100760004A95D1F708958F929F92AF92BF92CF9200
:10077000DF92EF92FF924B015C010E948E036B01AE
:100780007C010E948E036C197D098E099F09683EC9
:10079000734081059105A8F321E0821A9108A10810
:1007A000B10888EEC80E83E0D81EE11CF11C81144C
:1007B0009104A104B10429F7FF90EF90DF90CF904E
:1007C000BF90AF909F908F9008957F928F929F924D
:1007D000AF92BF92CF92DF92EF92FF920F931F934F
:1007E000CF93DF93C82E8B017A0180917202811121
:1007F00010C08FEF9FEFDF91CF911F910F91FF906E
:10080000EF90DF90CF90BF90AF909F908F907F90B0
:10081000089580913B0280FF05C08091E0008260D6
:100820008093E000CE2DDF2DD12C8AEFB82E8C2DB9
:100830008770982E8C2D8072882E8C2D8074782E47
:100840009AE3A92E209719F4DD2009F452C08C2DCB
:100850000E942F0281110AC0BA94BB2051F261E0BC
:1008600070E080E090E00E94B303ECCF8C171D068F
:1008700011F00CF08C2F9FB7F8949092E900209122
:10088000E80025FD02C09FBFDDCF282F30E0C21B4E
:10089000D30B882029F08150A0F01092F100FBCFFB
:1008A000F801C7FC0AC0815050F041914093F1001B
:1008B000FACF44914093F10031968150D0F7020F66
:1008C000131FDD2021F0A092E800D12CDCCF809115
:1008D000E80085FD07C0A092E800DD24D3942097AE
:1008E00091F2F3CF209779F6772069F2A092E80091
:1008F000CACF5D9884E680933A02C7017CCFCF933C
:10090000DF93EC0180911201882331F083E00E9493
:10091000E5031816190634F081E090E09B838A8382
:1009200080E090E0DF91CF910895DC01FB01129609
:100930002C911297848195812817190641F4918191
:100940008081813A31F49D7F81E0913009F080E02F
:1009500008958132E1F79B3029F482811F968C93B0
:1009600081E008959A3099F7828150968C93F8CF60
:10097000DC01FB0188E4808389E4818384E4828351
:100980001D969C911D979F709F5B93831D968D91E3
:100990009C9124E0969587952A95E1F78F708F5B5F
:1009A000848385E00895EF92FF920F931F93CF9376
:1009B000DF93FB012081213889F52381223271F5F3
:1009C000DC0112964C91248135814217130631F5D2
:1009D0008C01FC01C385D485F12CE12C209791F08A
:1009E0004C815D816A817B818E81811180E80E94CA
:1009F00009028F3F980759F0E80EF91E0990D88137
:100A0000C02DECCF81E0D8011F968C93C701DF91F8
:100A1000CF911F910F91FF90EF90089590E080E0AB
:100A2000F6CFCF93DF93CDB7DEB769970FB6F894C3
:100A3000DEBF0FBECDBFFC01DB018C918F5F8C93BD
:100A40009E012D5F3F4F8DE0D9011D928A95E9F7F8
:100A500029E0298384E08A8391E09D8383E08E836B
:100A60002A8721E22B879C879D879F8722E2288BFC
:100A700027E02B8B25E02C8B8E8B20E430E0388F09
:100A80002F8B998F82818B8395858685998B8A8B15
:100A9000838180688D8B49E150E0BE016F5F7F4F9D
:100AA00080E00E94090269960FB6F894DEBF0FBE7F
:100AB000CDBFDF91CF910895CF93DF93809118023E
:100AC000811167C081E080930B0280930C0221E1C9
:100AD00032E030930E0220930D0210921002109219
:100AE0000F022DE131E030930802209307021092AB
:100AF00013021092120210921502109214028093A7
:100B000016028093170281EC809311020E944D021D
:100B1000FC01818190910B02482F490F5527551FE9
:100B2000483051059CF5A281B381109709F527E063
:100B300032E03383228320812093090280930A02CA
:100B400080910C02820F808320910D02A22FB09120
:100B50000E028A2F821B8917C8F481813D91C82F0C
:100B6000D0E0C050DF4F38838F5F8183F2CFD9014F
:100B700018962D913C91199721153105C1F727E061
:100B800032E019963C932E931897D5CF81E080934D
:100B9000180287E092E0DF91CF9108952091BD0186
:100BA000260F3327331F21323105ECF42091E10168
:100BB000FC0190E080E0243069F082E00895A0918B
:100BC000BD012191AC0143565E4FA40FB52FB11D5D
:100BD0002C930196861798F38091BD01680F60935E
:100BE000BD0180E0089581E0089508958FEF9FEFA3
:100BF00008958FEF9FEF08958091960190E0919571
:100C0000819591090895CF93DF93CB01EA01642F79
:100C10000E94CE05CE01DF91CF910895CF93DF934F
:100C20001F92CDB7DEB7698361E0CE0101960E94C5
:100C3000CE0581E090E00F90DF91CF91089590E094
:100C400080E008958F929F92AF92BF92CF92DF92F1
:100C5000EF92FF920F931F93CF93DF93CDB7DEB741
:100C6000ADB6BEB6809112032DB73EB7281B310931
:100C70000FB6F8943EBF0FBE2DBF8DB79EB701963D
:100C80006C01E090E102F12C8091DD029091DE0296
:100C9000D601FC019F01281B390B2E153F051CF4C2
:100CA00021912D93F7CF8091E202882359F1809111
:100CB000D9029091DA0228E097FD09C068E671E058
:100CC0000E9408106DE270E00E940810262F8091AB
:100CD000DB029091DC0268E097FD08C068E671E0F5
:100CE0000E9408106DE270E00E940810F601EE0DFF
:100CF000FF1D90E1699FB0011124262B2083F7018D
:100D000031967F0186010E0D1F1D2091E702309163
:100D1000E8024091E5025091E6026091C3027091B1
:100D2000C4028091E30281700E94FF00E80EF91E68
:100D300086010E0D1F1D2091EB023091EC024091B7
:100D4000E9025091EA026091C5027091C602809159
:100D5000E302869581700E94FF00E80EF91E86016D
:100D60000E0D1F1D2091EF023091F0024091ED0217
:100D70005091EE026091C7027091C8028091E30227
:100D800082FB882780F90E94FF00E80EF91E860189
:100D90000E0D1F1D2091F3023091F4024091F102DB
:100DA0005091F2026091C9027091CA028091E302EF
:100DB00083FB882780F90E94FF00E80EF91E860158
:100DC0000E0D1F1D2091F7023091F8024091F5029F
:100DD0005091F6026091CB027091CC028091E302B7
:100DE000829581700E94FF00E80EF91E86010E0DAB
:100DF0001F1D2091FB023091FC024091F90250919D
:100E0000FA026091CD027091CE028091E30285FBDF
:100E1000882780F90E94FF00E80EF91E86010E0D5A
:100E20001F1D2091FF02309100034091FD0250915F
:100E3000FE026091D1027091D2028091E402817031
:100E40000E94FF00E80EF91E86010E0D1F1D209165
:100E50000303309104034091010350910203609118
:100E6000CF027091D0028091E402869581700E9439
:100E7000FF00E80EF91E86010E0D1F1D20910703CD
:100E80003091080340910503509106036091D3020D
:100E90007091D4028091E40282FB882780F90E943D
:100EA000FF00E80EF91E86010E0D1F1D20910B0399
:100EB00030910C034091090350910A036091D502CF
:100EC0007091D6028091E40283FB882780F90E940A
:100ED000FF008E0D9F1D8601080F191F20910F0323
:100EE0003091100340910D0350910E036091D70291
:100EF0007091D8028091E402829581700E94FF0077
:100F00000E945C054C01409112038091110350E056
:100F10007A01FFEFEF1AFF0A2DB73EB72E193F09EE
:100F20000FB6F8943EBF0FBE2DBF0DB71EB70F5FB3
:100F30001F4FEDB7FEB78183B601C80101960E942D
:100F40005B11F4018381A701B80180640E94E5036D
:100F50000FB6F894BEBE0FBEADBEDF91CF911F910C
:100F60000F91FF90EF90DF90CF90BF90AF909F9048
:100F70008F900895FC0101900020E9F73197AF01AF
:100F8000481B590BBC0183E792E00C947F041F932C
:100F9000CF93DF9385ED8093BC0080919901909170
:100FA0009A01A0919B01B0919C010796A11DB11DD2
:100FB00023E0B695A795979587952A95D1F7209127
:100FC000BC0024FD03C01092E10152C04091990180
:100FD00050919A0160919B0170919C01452B462B89
:100FE000472B69F30097A105B10541F02AE22A9544
:100FF000F1F700C00197A109B109E1CF80919801F3
:10100000C1E0C0939701882399F1D091B800109165
:10101000BA008091BC008A7B8093BC0060E082E0D3
:101020000E94600360E083E00E9460031092E1018F
:10103000C093E3011092E20161E082E00E9460034C
:1010400061E083E00E9460038091B9008E7F80930D
:10105000B9008091B9008D7F8093B90088E48093B6
:10106000B80085E48093BC001093BA00D093B80018
:10107000DF91CF911F9108951F920F920FB60F929B
:1010800011248F939F938091E1009091E100937FD1
:101090009093E10083FF0FC01092E90091E09093DC
:1010A000EB001092EC0092E39093ED00109272022C
:1010B00098E09093F00082FF22C093E09093E900C3
:1010C0009091F200992319F09AE39093E80090919F
:1010D0003A02992341F090913A02915090933A024A
:1010E000911101C05D9A90917102992341F0909104
:1010F0007102915090937102911101C0289A84FF5E
:1011000018C08091E2008E7E81608093E200809121
:10111000E1008F7E8093E10080913B028E7E8061B2
:1011200080933B029F918F910F900FBE0F901F9065
:10113000189580FFF7CF8091E2008E7E80618093CA
:10114000E2008091E1008E7E8093E10080913B027D
:101150008E7E8160E5CF1F920F920FB60F92112401
:10116000CF92DF92EF92FF920F931F932F933F93B3
:101170004F935F936F937F938F939F93AF93BF939F
:10118000EF93FF93CF93DF93CDB7DEB76C97DEBFBE
:10119000CDBF1092E9008091E80083FF25C068E090
:1011A000CE0145960E94400282EF8093E8008D892F
:1011B00087FF39C09091E80090FFFCCF982F907680
:1011C00009F034C19E894F89588D2F89F88C91116F
:1011D00031C0803861F580913C028093F10010921B
:1011E000F1008EEF8093E8006C960FB6F894DEBFA6
:1011F0000FBECDBFDF91CF91FF91EF91BF91AF9126
:101200009F918F917F916F915F914F913F912F911E
:101210001F910F91FF90EF90DF90CF900F900FBE36
:101220000F901F9018959EEF9093E800C7CF1092F3
:10123000F100D5CF913059F48111D3CF4130510510
:1012400081F680913C028D7F80933C02CACF93301F
:1012500049F48111C6CF4130510519F680913C0205
:101260008260F2CF953041F48091E80080FFFCCF9E
:1012700020682093E300B5CF963009F0A9C00B8D0C
:101280001C8D22E01092E900109238021092370271
:10129000F2122EC010923602109235020E946102A4
:1012A0001F8299E09983FA8291E09E8390EA988761
:1012B0009AEF99872091370230913802275F3F4F8C
:1012C0003C832B838D831092E90010923802109298
:1012D0003702109336020093350249E050E0BE0118
:1012E0006F5F7F4F80E00E9409020E94610279CF08
:1012F00010933602009335020E944D02DC011296D3
:101300000D911C910115110509F451C1D801ED9100
:10131000FC910480F581E02DBE016B5E7F4FC8011A
:101320000995009709F03EC1F80100851185EACFC3
:10133000F3E0FF120EC08F89882309F440C0823089
:1013400061F440E860E180E191E00E94D601811102
:1013500048CF81E28093EB0047CF813029F440E809
:101360006BE084E091E0F1CF833099F70E944D0269
:10137000DC011296ED90FC908E010F5F1F4F68010B
:10138000E114F10479F0D701ED91FC910680F78129
:10139000E02DB801C7010995080F111DF701E08480
:1013A000F184EECFD8011C92F60101900020E9F7FC
:1013B0003197BF016C197D0940E0C601C6CF6EEEC2
:1013C00070E0FB01449150E080E80E94090209CFDF
:1013D000973009F4BECF983021F481E08093F1007A
:1013E00000CF993009F0FDCE837009F0B2CFE1E073
:1013F000F1E081E031E096E32191222371F08093C6
:10140000E9003093EB00DF0111972C912093EC0061
:101410009093ED008F5F873079F78EE78093EA0035
:101420001092EA008F8980937202DBCE8B8D9C8DA7
:101430001092E9001092380210923702909336020F
:1014400080933502898D811192C08E899D89913A50
:1014500049F4813209F07DCF47E050E06BE071E064
:1014600080E0B3CF913209F074CF833269F48F8971
:10147000988DB0E0A0E08093070190930801A093BD
:101480000901B0930A01ADCE803269F48091E80081
:1014900082FFFCCF67E08BE091E00E9440028BEF7F
:1014A0008093E8009ECE823209F09BCE8F89809394
:1014B0001201EEEFFFE7859194918B3F9C4D51F126
:1014C000E0E0F8E080910B0190910C01A0910D01FA
:1014D000B0910E01803B9440A105B105F1F48091DB
:1014E000120180FD1AC0EE3F8AE0F80789F587E710
:1014F00097E791838083809160008093390288E12F
:101500009BE00FB6F894A895809360000FBE90936F
:10151000600067CEEEEFFAE0D5CF8081918187370A
:10152000974709F05ECEA89580916000886180930E
:1015300060008091390280936000EE3F2AE0F2075C
:1015400089F08091FE0A9091FF0A9183808349CEB1
:10155000808191818737980751F29093FF0A809399
:10156000FE0AC5CF1092FF0A1092FE0A3ACE0E94E0
:101570004D02DC0112960D911C910115110509F423
:10158000E8CED801ED91FC910190F081E02DBE01F3
:101590006B5E7F4FC8010995811123CEF80100854C
:1015A0001185EBCF181619060CF41BCED2CEF1E044
:1015B000FF12BECE62EF70E004CF1F920F920FB603
:1015C0000F9211242F933F938F939F93AF93BF93C9
:1015D0008091210290912202A0912302B0912402D5
:1015E0003091200223E0230F2D3758F50196A11DDD
:1015F000B11D209320028093210290932202A09398
:101600002302B09324028091250290912602A0919A
:101610002702B09128020196A11DB11D80932502D9
:1016200090932602A0932702B0932802BF91AF9116
:101630009F918F913F912F910F900FBE0F901F9010
:10164000189526E8230F0296A11DB11DD2CF1F9237
:101650000F920FB60F9211242F933F934F935F93E6
:101660006F937F938F939F93AF93BF93EF93FF936A
:101670008091B900887F803609F44AC0F0F588323D
:1016800009F4A5C018F5803109F499C0B8F488238D
:1016900009F4F5C0883009F492C0FF91EF91BF9131
:1016A000AF919F918F917F916F915F914F913F91FA
:1016B0002F910F900FBE0F901F901895883109F44D
:1016C00086C0803251F78093E00114C0803409F461
:1016D0009BC040F48033B9F38833F9F68093E0017E
:1016E00085ECAEC0803509F483C0883509F494C018
:1016F000883499F60E94C707D0CF883909F48AC088
:1017000038F5883729F050F4883611F0803729F6FB
:1017100083E08093E1011092DF0155C0883809F41D
:1017200079C0803919F0803809F0B7CF8091DF0196
:10173000803208F06FC0E091DF0181E08E0F80936E
:10174000DF018091BB00F0E0E154FE4F80833BC09D
:10175000803B39F0D0F4803A09F477C0883A09F038
:101760009CCF84E08093E1011092BE011092BD01F4
:10177000F0E0E0E009958091BD0181110FC081E0AA
:101780008093BD0110929D0109C0803C09F4A8CF4F
:10179000883C09F4A5CF883B09F07FCFE091BE01DA
:1017A00081E08E0F8093BE01F0E0E356FE4F808112
:1017B0008093BB009091BE018091BD0129C08091B2
:1017C00006028093BB0085EC8093BC0066CF9091AD
:1017D000050280910402981758F5E091050281E016
:1017E0008E0F80930502F0E0EC51FE4F8081E9CF2F
:1017F000E091050281E08E0F809305028091BB008D
:10180000F0E0EC51FE4F808390910502809104023C
:101810009817C8F285E8D8CFE091050281E08E0FD5
:10182000809305028091BB00F0E0EC51FE4F808375
:101830008091E30181115ECF81E08093E20184EA2F
:101840008093BC001092E10128CF85EC8093BC000E
:101850001092E1018091DF01803230F4E091DF01EC
:10186000F0E0E154FE4F10826091DF0170E08FEBF9
:1018700091E0F0E0E0E009951092DF010ECF1092C8
:10188000E00138CFEF92FF920F931F93CF93DF9336
:10189000CDB7DEB7C659D1090FB6F894DEBF0FBE7B
:1018A000CDBF109276021092750288EE93E0A0E010
:1018B000B0E08093770290937802A0937902B0937E
:1018C0007A0283E491E090937402809373028FEF25
:1018D0009FEF9093800280937F021092DE0210921D
:1018E000DD021092E1021092E6021092E5028FEF03
:1018F00093E09093E8028093E7021092EA0210923C
:10190000E9029093EC028093EB021092EE021092A7
:10191000ED029093F0028093EF021092F202109287
:10192000F1029093F4028093F3021092F602109267
:10193000F5029093F8028093F7021092FA02109247
:10194000F9029093FC028093FB021092FE02109227
:10195000FD02909300038093FF0210920203109205
:1019600001039093040380930303109206031092E3
:101970000503909308038093070310920A031092C3
:10198000090390930C0380930B0310920E031092A3
:101990000D039093100380930F0343E040931103D2
:1019A00098E29093E0021092E2021092E302109209
:1019B000E40235E0398381E08A8329E02B8354E017
:1019C0005C8351EA5D838E8355E85F83488739875E
:1019D0002A8729E12B878C8729E22D879E8725E19D
:1019E0002F87188A25E2298B8A8B25E72B8B8C8BF6
:1019F00085E98D8B9E8B85E58F8B188E85E6898F8B
:101A00001A8E81E88B8F82E08C8F80EC8D8F8DE138
:101A100090E00E9436107C018DE1FE013196D701E5
:101A200001900D928A95E1F787E090E00E943610D0
:101A30008C01DC0111961C921E921396FC92EE9280
:101A400012978DE190E015969C938E9314971696BD
:101A50001C920E945C05FC01A385B485109709F0D7
:101A600076C01487038785859685D80114962D91B5
:101A70003C91820F931F968785879091E002892F72
:101A8000869586958695977009F069C08093E102E6
:101A90001091E102812F90E0009711F481E090E035
:101AA0000E9436109093DE028093DD0281E09091D7
:101AB000E202911101C080E0810F80931203109225
:101AC000C4021092C3021092C6021092C502109274
:101AD000C8021092C7021092CA021092C902109254
:101AE000CC021092CB021092CE021092CD02109234
:101AF000D0021092CF021092D2021092D102109214
:101B0000D4021092D3021092D6021092D5021092F3
:101B1000D8021092D7028FEF9FEF9093DA02809352
:101B2000D9029093DC028093DB0290E080E0209168
:101B3000E10228171906A9F0A4F0E091DD02F09166
:101B4000DE02E80FF91F10820196F1CFDC018D91C2
:101B50009C9111970097D1F70D931C9384CF8F5FC1
:101B600095CFCA56DF4F0FB6F894DEBF0FBECDBF7C
:101B7000DF91CF911F910F91FF90EF900895CF9338
:101B8000DF93CDB7DEB7C354D1090FB6F894DEBFEB
:101B90000FBECDBF789484B5826084BD84B581606A
:101BA00084BD85B5826085BD85B5816085BD809128
:101BB0006E00816080936E001092810080918100A0
:101BC0008260809381008091810081608093810098
:101BD000809180008160809380008091910082607C
:101BE0008093910080919100816080939100809119
:101BF00090008160809390008091C1008460809308
:101C0000C1008091C10082608093C1008091C100B9
:101C100081608093C1008091C30081608093C30084
:101C20008091C00082608093C0008091C20081607A
:101C30008093C20080917A00846080937A008091C2
:101C40007A00826080937A0080917A00816080932C
:101C50007A0080917A00806880937A0010927202F4
:101C600010923C0210923B028091D70081608093D9
:101C7000D70080EA8093D80089B5806189BD89B595
:101C8000826089BD89B5282F217024962FAF2497B3
:101C900080FFF8CF61E070E080E090E00E94B30345
:101CA0008091D8008F7C80618093D8008091E00083
:101CB000807F8093E0008091E1008E7E8093E10040
:101CC0008DE08093E200559A209A83E00E945601AD
:101CD00084E00E94560185E00E94560186E00E9441
:101CE000560187E00E94560188E00E94560189E073
:101CF0000E9456018AE00E9456018BE00E94560124
:101D00008CE00E94560181E591E00E94BA0782E9C9
:101D100091E00E94BA0781E08093DF020E942206D0
:101D20008FEF9FEF9093800280937F0210911201BA
:101D30006AE070E080E090E00E94B3031123B1F309
:101D40006DE5862E61E0962EAE014F5F5F4F5A0122
:101D5000412C512C3201439457E2C52E51E0D52E2F
:101D600001E010E0F601819191916F01019739F541
:101D7000F801E15DFE4F8491F801E757FE4F249092
:101D8000F801E659FE4F34907801EE0CFF1C332029
:101D900009F440C081110E941403E32DF0E0EE0F1E
:101DA000FF1FEF5DFE4FA591B491EC912E2291F1B2
:101DB000F701E35CFD4F21E030E0318320830F5FCA
:101DC0001F4F0D30110509F0CDCF2FE3222E22E059
:101DD000322E49E552E023965FAF4EAF2397DA01EA
:101DE000F101219131918D919D9128173907A9F524
:101DF00052E0E735F507A9F769E170E080E090E08F
:101E00000E94B30340E050E0452B09F4A5CF0E94A7
:101E10000000A2CFF701E35CFD4F11821082CFCF0B
:101E2000181708F08DC08091DD029091DE02E12F3D
:101E3000E695E695E695E80FF92FF11D812F87705D
:101E4000A301920104C0220F331F441F551F8A951E
:101E5000D2F7C9012081822B6DC087E791E00E94F3
:101E6000BA0789E5C82E82E0D82E9FE3E92E92E0DA
:101E7000F92E01E010E0F70120813181F2E0EF0E50
:101E8000F11CF60180819181F2E0CF0ED11C3F93CD
:101E90002F939F938F931F930F939F928F92BF9235
:101EA000AF920E946411C5010E94BA0782E991E0D5
:101EB0000E94BA070F5F1F4F0FB6F894DEBF0FBE28
:101EC000CDBF0D301105B9F624961FAD249723968A
:101ED000EEADFFAD2397819191912396FFAFEEAFC9
:101EE0002397F101219131911F018217930741F14D
:101EF0008091E0022130310509F492CF181700F5E6
:101F00008091DD029091DE02E12FE695E695E6955F
:101F1000E80FF92FF11D812F8770A301920104C0F2
:101F2000220F331F441F551F8A95D2F7922F909589
:101F30008081892380838091DF0281110E942206A3
:101F40001F5F1D3021F68AE1EDE3F2E0A7E5B2E084
:101F500001900D928A95E1F74FCF052E97FB1EF465
:101F600000940E94C40F57FD07D00E94D70F07FCB2
:101F700003D04EF40C94C40F5095409530952195A4
:101F80003F4F4F4F5F4F08959095809570956195A5
:101F90007F4F8F4F9F4F08950E94F90FA59F900D7F
:101FA000B49F900DA49F800D911D11240895A1E26E
:101FB0001A2EAA1BBB1BFD010DC0AA1FBB1FEE1FC3
:101FC000FF1FA217B307E407F50720F0A21BB30B0E
:101FD000E40BF50B661F771F881F991F1A9469F78A
:101FE00060957095809590959B01AC01BD01CF01E6
:101FF0000895A29FB001B39FC001A39F700D811DE2
:102000001124911DB29F700D811D1124911D089501
:1020100097FB072E16F4009407D077FD09D00E9495
:10202000221007FC05D03EF4909581959F4F0895AE
:10203000709561957F4F0895EE0FFF1F0590F49105
:10204000E02D0994AA1BBB1B51E107C0AA1FBB1FAF
:10205000A617B70710F0A61BB70B881F991F5A9534
:10206000A9F780959095BC01CD0108950F931F931A
:10207000CF93DF938230910510F482E090E0E091FD
:102080001503F091160330E020E0B0E0A0E03097B7
:1020900099F42115310509F44AC0281B390B243065
:1020A0003105D8F58A819B816115710589F1FB01A4
:1020B00093838283FE0111C040815181028113818B
:1020C00048175907E0F04817590799F4109761F03D
:1020D00012960C93129713961C933296CF01DF91B0
:1020E000CF911F910F91089500931503109316033C
:1020F000F4CF2115310551F04217530738F0A901EB
:10210000DB019A01BD01DF01F801C1CFEF01F9CF79
:102110009093160380931503CDCFFE01E20FF31FBA
:10212000819391932250310939832883D7CF20910D
:10213000130330911403232B41F4209115013091A6
:10214000160130931403209313032091130130914F
:1021500014012115310541F42DB73EB74091170107
:1021600050911801241B350BE0911303F0911403D7
:10217000E217F307A0F42E1B3F0B2817390778F05E
:10218000AC014E5F5F4F2417350748F04E0F5F1FBD
:102190005093140340931303819391939FCFF0E0E6
:1021A000E0E09CCFCF93DF930097E9F0FC013297FA
:1021B00013821282A0911503B0911603ED0130E055
:1021C00020E01097A1F420813181820F931F20918C
:1021D0001303309114032817390709F061C0F093F5
:1021E0001403E0931303DF91CF910895EA01CE1712
:1021F000DF07E8F54A815B819E0141155105B1F782
:10220000E901FB83EA8349915991C40FD51FEC176B
:10221000FD0761F4808191810296840F951FE90189
:1022200099838883828193819B838A83F0E0E0E0B5
:1022300012968D919C9113970097B9F52D913C9131
:102240001197CD010296820F931F209113033091B5
:1022500014032817390739F6309751F510921603F1
:1022600010921503B0931403A0931303BCCFD38330
:10227000C28340815181840F951FC817D90761F42B
:102280004E5F5F4F88819981480F591F518340836A
:102290008A819B81938382832115310509F0B0CF18
:1022A000F0931603E09315039ECFFD01DC01C0CF30
:1022B00013821282D7CFFB01DC0102C001900D9284
:1022C00041505040D8F70895AEE0B0E0EAE6F1E1C1
:1022D0000C9413140D891E8986E08C831A8309835C
:1022E0008FEF9FE79E838D83AE01475E5F4F6F89BF
:1022F000788DCE0101960E9487112F813885020FBB
:10230000131FF80110822E96E4E00C942F14ABE01A
:10231000B0E0EDE8F1E10C9405147C013B018A0189
:10232000FC0117821682838181FFC8C1CE0101960C
:102330005C01F7019381F30193FD859193FF8191F6
:102340003F01882309F453C1853239F493FD859107
:1023500093FF81913F01853229F4B70190E00E94FB
:102360007713E7CF912C212C312CFFE1F31538F0B6
:102370008B3211F190F4803209F1833229F137FC6C
:102380003CC020ED280F2A3050F536FE20C08AE0F0
:10239000989E200D1124922E06C08D3291F080332C
:1023A00071F7689430F8F30193FD859193FF819163
:1023B0003F018111DACF21C0689431F8689432F876
:1023C000F2CF689433F8EFCF689434F8ECCFEAE0BA
:1023D0002E9E200D1124222E689435F8E4CF8E32E3
:1023E00029F436FC04C1689436F8DDCF8C3619F434
:1023F000689437F8D8CF8836B1F2982F9F7D9554DE
:102400009330E0F08336A1F18337C1F1833509F0D1
:1024100063C02801F2E04F0E511CF801C080D1804A
:10242000692D70E036FC02C06FEF7FEFC6010E949D
:1024300061134C01689437F882010AC00C5F1F4F8A
:10244000FFE3F98388248394912C6501E89437F89D
:1024500033FE2DC0522C8114910471F5552009F4DE
:1024600068CFB70180E290E00E9477135A94F6CFCC
:10247000F801808189830E5F1F4FE4CF2801F2E0CD
:102480004F0E511CF801C080D180692D70E036FCE0
:1024900002C06FEF7FEFC6010E946C134C018201F6
:1024A000D5CFB70180E290E00E9477132A942814D8
:1024B000190409F0B0F7CECFF60137FC859137FE4D
:1024C00081916F01B70190E00E94771351105A94E7
:1024D000F1E08F1A9108BFCF843619F0893609F0E0
:1024E00077C0F80137FE6BC0608171818281938172
:1024F0000C5F1F4FF32DFF763F2E97FF09C090957D
:102500008095709561957F4F8F4F9F4F689437F8F6
:102510002AE030E0A5010E94A713C82ECA188C2C0F
:10252000432C36FE0CC0E89440F8C91440F434FE45
:1025300005C032FC03C0F32DFE7E4F2E892C44FED5
:1025400095C0FE01EC0DF11D8081803309F087C03C
:10255000242D297E422E842D8870582E43FC95C050
:1025600040FE8FC09C2C821418F42C0C922C9818CE
:1025700044FE91C0B70180E390E00E94771342FED1
:1025800009C088E790E041FE02C088E590E0B7010D
:102590000E947713C91408F48AC0CA94D12C9FEF03
:1025A000C91AD90ACA0CDB1CF60182916F01B70166
:1025B00090E00E947713AC14BD04B1F74FCF608157
:1025C0007181072E000C880B990B0E5F1F4F92CF65
:1025D000D32CE894D4F82AE030E0853739F1232D64
:1025E000297FD22E8F3601F148F48835A9F0F70102
:1025F000868197812B96E2E10C942114803749F073
:102600008837A9F7D4FE02C06894D2F820E130E000
:102610000DC06894D4F8F6CF34FE03C0822F8660D4
:10262000D82E20E132E002C028E030E0F801D7FEE9
:102630000FC060817181828193810C5F1F4FA50162
:102640000E94A713C82ECA183D2CE89437F867CF0C
:102650006081718190E080E00E5F1F4FF0CF42FCFF
:1026600002C0839478CF8394839475CF842D867829
:1026700009F471CFF6CFB70180E290E00E947713A2
:1026800083948214C0F3512C73CF522C58188214A7
:1026900008F46ECFF8CF842D867809F47BCF8BE2D7
:1026A00041FE80E247FC8DE2B70190E071CFB701B7
:1026B00080E390E00E9477139A946CCF8FEF9FEFA6
:1026C00099CFFC010590615070400110D8F78095BA
:1026D00090958E0F9F1F0895FC01615070400190EE
:1026E0000110D8F7809590958E0F9F1F08950F9336
:1026F0001F93CF93DF93182F092FEB018B8181FD5F
:1027000009C01FEF0FEF812F902FDF91CF911F9105
:102710000F91089582FF14C02E813F818C819D818D
:10272000281739073CF4E881F981CF010196998394
:10273000888310838E819F8101969F838E83E3CF50
:10274000E885F985812F0995892BA1F3DACFFA0164
:10275000AA27283051F1203181F1E8946F936E7FE0
:102760006E5F7F4F8F4F9F4FAF4FB1E03ED0B4E0D1
:102770003CD0670F781F891F9A1FA11D680F791F12
:102780008A1F911DA11D6A0F711D811D911DA11D23
:1027900020D009F468943F912AE0269F1124301933
:1027A000305D3193DEF6CF010895462F4770405DCE
:1027B0004193B3E00FD0C9F7F6CF462F4F70405D7D
:1027C0004A3318F0495D31FD4052419302D0A9F7D8
:1027D000EACFB4E0A6959795879577956795BA95D2
:1027E000C9F700976105710508959B01AC010A2E98
:1027F00006945795479537952795BA95C9F7620F6F
:10280000731F841F951FA01D08952F923F924F9212
:102810005F926F927F928F929F92AF92BF92CF9270
:10282000DF92EF92FF920F931F93CF93DF93CDB779
:10283000DEB7CA1BDB0B0FB6F894DEBF0FBECDBFF1
:1028400009942A88398848885F846E847D848C84C2
:102850009B84AA84B984C884DF80EE80FD800C81CB
:102860001B81AA81B981CE0FD11D0FB6F894DEBFAE
:0C2870000FBECDBFED010895F894FFCF1E
:10287C0000C18081000000FFFFFFFF00E1000000AD
:10288C0000000000001703800000000000950411F8
:10289C0005D304B804000000000100010001000190
:1028AC000001000100010001000100010001000015
:1028BC0000000092027F04B302A802FA02B802D60A
:1028CC0002537461727420736574757000696E6460
:1028DC0065783A202564206F6C643A202564204E7C
:1028EC0065773A202564002A50696E2076616C75F4
:1028FC0065206368616E67652064657465637465E3
:06290C00642A0D0A000020
:00000001FF
